:020000040800F2
:1000000000000220A106000895060008C13600087D
:1000100095060008950600089506000800000000F7
:10002000000000000000000000000000950600082D
:1000300095060008000000009506000845360008F7
:100040009506000895060008950600089506000824
:100050009506000895060008950600089506000814
:10006000950600089506000895060008D933000893
:10007000E5330008451B0008F1330008FD33000894
:10008000ED050108052500089506000895060008FD
:1000900095060008950600089506000895060008D4
:1000A00095060008950600089506000895060008C4
:1000B00039F7000845F7000851F70008392500080E
:1000C00095060008452500089506000881EF000800
:1000D0008DEF0008210401084D0401088104010886
:1000E0009506000895060008000000009506000827
:1000F0009506000895060008950600089506000874
:1001000095060008950600085DF7000899EF0008BD
:10011000B5040108E90401089506000895060008E1
:100120009506000895060008BDEF0008F1EF0008ED
:1001300021060108950600089506000895060008A6
:1001400000000000000000000000000000000000AF
:100150009506000895060008950600081D0501088B
:100160005125000895060008553600087936000824
:10017000950600089D3600089506000895060008BB
:100180009506000895060008510501088505010837
:10019000A5EF0008B1EF00089506000895060008D5
:1001A00095060008950600089506000895060008C3
:1001B000CD30000895060008950600089506000851
:1001C000950600089506000809160008151600088F
:1001D00095060008211600089506000895060008F7
:1001E0009506000895060008950600089506000883
:1001F0009506000895060008950600089506000873
:100200009506000895060008950600089506000862
:100210009506000895060008950600089506000852
:1002200095060008950600089506000800000000E5
:1002300095060008950600080000000095060008D5
:100240009506000895060008950600089506000822
:100250009506000895060008950600089506000812
:100260009506000895060008950600089506000802
:100270009506000895060008B90501080000000071
:100280009506000895060008950600080000000085
:080290000000000095060008C3
:1002A00010B5054C237833B9044B13B10448AFF3B0
:1002B00000800123237010BD780700240000000097
:1002C0002462010808B5034B1BB103490348AFF38F
:1002D000008008BD000000007C07002424620108A3
:1002E000034613F8012B002AFBD1181A0138704776
:1002F00001F0FF01102A2BDB10F0070F08D010F8D7
:10030000013B013A8B422DD010F0070F42B3F6D1DA
:10031000F0B441EA012141EA014122F007047FF0F3
:1003200000070023F0E80256083C85EA010586EA4A
:10033000010685FA47F5A3FA87F586FA47F6A5FA86
:1003400087F68EB9EED1F0BC01F0FF0102F0070292
:1003500032B110F8013B013A83EA010313B1F8D13D
:100360000020704701387047002D06BF354603381E
:10037000073815F0010F07D1013015F4807F02BF57
:10038000013015F4C03F0130F0BC0138704700BFA8
:1003900053B94AB9002908BF00281CBF4FF0FF31EC
:1003A0004FF0FF3000F074B9ADF1080C6DE904CEE8
:1003B00000F006F8DDF804E0DDE9022304B0704740
:1003C0002DE9F047089D04468E46002B4DD18A4208
:1003D000944669D9B2FA82F252B101FA02F3C2F13B
:1003E000200120FA01F10CFA02FC41EA030E9440CC
:1003F0004FEA1C48210CBEFBF8F61FFA8CF708FBED
:1004000016E341EA034306FB07F199420AD91CEBC4
:10041000030306F1FF3080F01F81994240F21C81F6
:10042000023E63445B1AA4B2B3FBF8F008FB10333E
:1004300044EA034400FB07F7A7420AD91CEB040473
:1004400000F1FF3380F00A81A74240F20781644443
:10045000023840EA0640E41B00261DB1D4400023C8
:10046000C5E900433146BDE8F0878B4209D9002D2C
:1004700000F0EF800026C5E9000130463146BDE8B6
:10048000F087B3FA83F6002E4AD18B4202D3824220
:1004900000F2F980841A61EB030301209E46002DCF
:1004A000E0D0C5E9004EDDE702B9FFDEB2FA82F224
:1004B000002A40F09280A1EB0C014FEA1C471FFA82
:1004C0008CFE0126200CB1FBF7F307FB131140EA69
:1004D00001410EFB03F0884208D91CEB010103F136
:1004E000FF3802D2884200F2CB804346091AA4B2F8
:1004F000B1FBF7F007FB101144EA01440EFB00FECC
:10050000A64508D91CEB040400F1FF3102D2A64530
:1005100000F2BB800846A4EB0E0440EA03409CE7CF
:10052000C6F12007B34022FA07FC4CEA030C20FA7C
:1005300007F401FA06F31C43F9404FEA1C4900FA9C
:1005400006F3B1FBF9F8200C1FFA8CFE09FB181119
:1005500040EA014108FB0EF0884202FA06F20BD98C
:100560001CEB010108F1FF3A80F08880884240F2DC
:100570008580A8F102086144091AA4B2B1FBF9F020
:1005800009FB101144EA014100FB0EFE8E4508D91B
:100590001CEB010100F1FF346CD28E456AD90238A0
:1005A000614440EA0840A0FB0294A1EB0E01A14285
:1005B000C846A64656D353D05DB1B3EB080261EBF3
:1005C0000E0101FA07F722FA06F3F1401F43C5E9CD
:1005D000007100263146BDE8F087C2F12003D84003
:1005E0000CFA02FC21FA03F3914001434FEA1C4745
:1005F0001FFA8CFEB3FBF7F007FB10360B0C43EA37
:10060000064300FB0EF69E4204FA02F408D91CEBE6
:10061000030300F1FF382FD29E422DD902386344E4
:100620009B1B89B2B3FBF7F607FB163341EA034184
:1006300006FB0EF38B4208D91CEB010106F1FF38D3
:1006400016D28B4214D9023E6144C91A46EA0046CA
:1006500038E72E46284605E70646E3E61846F8E65C
:100660004B45A9D2B9EB020864EB0C0E0138A3E7A5
:100670004646EAE7204694E74046D1E7D0467BE786
:10068000023B614432E7304609E76444023842E7FE
:10069000704700BF684620F007018D46FEE700BFA7
:1006A0000B480C4A904208B503D0121A0A4912F0BE
:1006B0004DFB0A480A4A904203D0121A002112F058
:1006C00053FB03F069FA12F00DFB00F061F8FEE74E
:1006D00000000024780700246062010878070024E5
:1006E000E0FC0024704700BF704700BF70B5224D8A
:1006F00086B00F242046013400F00EFA0346E4B21F
:100700002846ADF80C3002220399543500F08EFFD4
:10071000152CEFD12046194D00F0FEF903460222B8
:100720001748ADF810300124049900F07FFF04232E
:1007300007221149134800F089FF124801F08EF991
:1007400000221149012311480968009201F090FC30
:10075000E0B2002600F0E0F90123ADF81400013406
:1007600028461A4605991435009601F081FC072C9D
:10077000EED106B070BD00BF94070024680A0024C3
:100780008C0900240C0A0024C05B0108E009002445
:100790002DE9F04391480124DFF860922DED048BA0
:1007A00091B0F3EE048A00F0B5F900218B4809F10D
:1007B000780700F089FAFFF799FF002000F05CFE4F
:1007C00000239846CDE90433CDE90633CDE908335B
:1007D000834801F033FD80F001030646DBB213B11C
:1007E000002C40F08C8006217E4801F04DF907EE88
:1007F000900A0AAD0024B8EE678AE1B2794801F0A8
:1008000043F907EE900A01343220F8EE677AE5ECFE
:10081000017A02F0C7FF062CEFD1B8F1000F38D0F3
:10082000B8F1070F78D09FED706A08F1FF3410AB74
:10083000B0EE689AC8EE066A9FED6C7A03EB84020C
:10084000A30012ED068A2344F3EE047A09EB830039
:1008500078EE277AA6EE879AB4EEE79A02ED0C9A24
:10086000F1EE10FA4CBF0021012101F0F3FCB7EECC
:10087000C87AB7EEC96A21465D4853EC162B8DED58
:10088000007B00F0EBFD32215448344600F05AF969
:100890009EE79FED557AF6EE006ADDED0E7AC8EE22
:1008A000078A9FED547A9DED0F6A5348534C37EEFB
:1008B000868A28EE268A68EE878AB7EEE87A53ECB5
:1008C000172B00F0CBFDB7EEC87A4D4853EC172B31
:1008D00000F0C4FDB4EEE88AF1EE10FA07DD204620
:1008E0001434012101F0B6FCBC42F8D1CBE720461C
:1008F0001434002101F0AEFCBC42F8D1C3E708F18A
:10090000010840485FFA88F8414600F0A7FD32210F
:10091000324800F017F966E73048322100F012F94A
:100920003948364C00F09AFD20461434002101F07D
:1009300091FCBC42F8D100230293ADF80C3004AF17
:1009400002AD4E46002412E095F80080B8F1000F89
:1009500035D077EEC77AB4EEE78AF1EE10FA01D51A
:1009600000232B70013401351436062C22D0E1B25D
:100970001C4801F089F808EE100A3220B8EE488AC7
:1009800002F010FFF7EC017AB2EE0E7AB4EEE78ACD
:10099000F1EE10FAD8DC77EEC77AB4EEE78AF1EE22
:1009A00010FADFD52B78002BDAD10134013514365B
:1009B000062CDCD10A21094800F0C4F8BFE7012168
:1009C0003046297001F046FC6421044800F0BAF872
:1009D0004146304601F03EFCC4E700BFF409002464
:1009E000E00900240C0A002400FF7F4700001643A2
:1009F000705B01080000FA434C5B0108680A0024A0
:100A0000605B01083C5B0108985B010838B5384819
:100A100000244FF60B736FF0F411364A836544617E
:100A2000046244660467C0E90041C0E90211C0E9FC
:100A30000A343149C0E90F34C0E90C44C0E911441B
:100A4000C0E9174412F032F92C482D4B4FF4407294
:100A500000F1B40540F20F71C0F89C3040F2011370
:100A6000C0F8B040C0E92815C0E900242549214A52
:100A7000C0E92A3412F01AF9234901F5137E002245
:100A80000B24FF20A1F13C0301F8504C41F84C2C01
:100A900001F84F0C41E91222143300224FF00B0CE5
:100AA000FF208B4243F8102C03F814CC03F8130CEE
:100AB00043E90322F0D103F154017145DFD1134B17
:100AC0004FF60B70124903F17804C1E90002C1E945
:100AD0000222143300220B20FF21A34243F8102CE2
:100AE00003F8140C03F8131C43E90322F1D138BDB9
:100AF000F409002400000024E5060008E00A0024B0
:100B00000080707FE9060008E4070024680A0024DA
:100B1000E0090024704700BF202882B009D8084BA4
:100B200003EB400213F81030507843EA002002B083
:100B3000704701230C2043EA002002B0704700BF39
:100B4000C45B0108084602F02BBE00BF10B540F29E
:100B500003338EB000244FF60B7240F20341ADF820
:100B6000083009A80123ADF81020ADF82420224652
:100B7000ADF80C100094029907940C94CDE905444B
:100B8000CDE90A4401F074FA04A80123224603992E
:100B9000009401F06DFA09A801F050FB10B9012092
:100BA0000EB010BD04A801F049FBA0420CBF02200A
:100BB00020460EB010BD00BF2DE9F04103239AB0CE
:100BC0004FF0010800254FF60B740746CDE91438A5
:100BD000394BADF84C40CDE91053A3F19F63A3F519
:100BE0007D43CDE916581293FFF7B0FF4045064606
:100BF00023D0022842D040F60132304B07F1580092
:100C00000BACADF82C200B991895CDF86480CDF87D
:100C10004A3000F0DBF810A907F1700002F0F4FB95
:100C2000274B0FCB84E80F003A6F214607F11400E1
:100C300000F048FB1AB0BDE8F08110231F4A06A956
:100C400006908DF828300BAC1E4BCDF84A20079348
:100C50000295CDE91805CDE9080502A801F07EFC52
:100C60000823029A03A92046ADF80C608DF80E50B7
:100C7000049605930B9500F0E9F8CCE740F60133B4
:100C8000ADF82C4000200BACADF8183001210B4B17
:100C900042460095CDF84A302B460E95CDE9180115
:100CA00006992046CDE90C5501F0E2F92946204687
:100CB00001F0D0FAAFE700BF040204040406040305
:100CC000F85A01080704010B2DE9F04704462DED01
:100CD000028B82B0002949D0012140F20112002389
:100CE0000091ADF804208DF80630354A0127354BC8
:100CF00004F10409344904F13C08626040F20272D4
:100D0000A36040F60663E16004F1280A2285A38708
:100D10002782E762276402F0F5FE054602F048FDEF
:100D20006946064650BB4DB304F150008DF806707D
:100D300002F06AFE072D3ED104F114052046FFF7AC
:100D40003BFF284600F0FAFA2846B0EE408A00F051
:100D5000F1FAD0ED007AF8EE677A88EE277A84ED22
:100D60001B7A02B0BDEC028BBDE8F08740F20113A4
:100D700000918DF80610ADF80430B6E704F150008C
:100D800002F042FE072D13D04946204601F0BCFF79
:100D90000EB9002DD0D15146504600F0A5FF404677
:100DA000414600F0A1FF04F1120000F079F9C3E719
:100DB000002EF0D1C0E74946204601F0A5FFBBE771
:100DC0000508050905070506050A060630B585B0BC
:100DD000002504460122ADF80C102B46039900951E
:100DE00001F046F90121204601F034FA012002F019
:100DF000D7FC2946204601F02DFA012002F0D0FC54
:100E00000121204605B0BDE8304001F023BA00BF03
:100E100010B5C2F3002384B00C46017C8DF80D2080
:100E200043EA4402FA2402238DF80C2003AA00941A
:100E300001F02CFC18B10124204604B010BD04467A
:100E40000A2002F0ADFC204604B010BD034670B588
:100E500043F8042B044684B007C983E80700A3794C
:100E600083B91A210B461E22FA2523742046ADF8B9
:100E70000C20022303AA009501F008FC28B10120F0
:100E800004B070BD1B210B46EDE70A2002F088FC80
:100E90004FF4B85200950223ADF80C20204603AA67
:100EA000217C01F0F3FB0028E9D10A2002F078FC54
:100EB00041F2027200950223ADF80C20204603AAED
:100EC000217C01F0E3FB0028D9D10A2002F068FC64
:100ED000042200950223ADF80C20204603AA217CB1
:100EE00001F0D4FB0028CAD10A2002F059FC0622E6
:100EF00000950223ADF80C20204603AA217C01F0C6
:100F0000C5FB0028BBD10A2002F04AFC41F20822AE
:100F100000950223ADF80C20204603AA217C01F0A5
:100F2000B5FB0028ABD10A20064602F039FC00953B
:100F3000022303AA217C2046ADF80C6001F0A6FB39
:100F400000289CD1304602F02BFC009522790C231E
:100F50002046002A8DF80C3003AA4FF0020314BF7C
:100F6000622142218DF80D10217C01F08FFB0028B9
:100F700085D1304602F014FC2279D4E902310B43CA
:100F8000DBB20AB943F0400362790AB143F02003AF
:100F90000E22FA258DF80D302046009502238DF89B
:100FA0000C2003AA217C01F071FB00287FF467AFBD
:100FB0000A2002F0F5FB102200950223ADF80C2068
:100FC000204603AA217C01F061FB00287FF457AF83
:100FD0000A2002F0E5FB122100950223ADF80C1067
:100FE00003AA217C204601F051FB00287FF447AF83
:100FF0000A2002F0D5FB012209212046FFF708FF55
:10100000003818BF01203BE7F0B5102387B0234C10
:10101000012200250126002702A920460195CDE9DD
:1010200002234FF48052CDE904670BF0CDF8642021
:1010300003F0EEFA02A94FF480522046CDE904678E
:1010400002261027CDE902670BF0BEF80322102319
:1010500002A92046CDE9022300230422CDE904237E
:101060004FF480520BF0B0F840F23223042202A970
:10107000019310232046CDE90223019A0123059212
:101080004FF4805204930BF09FF840F6060120467F
:101090000BF0BAF8284607B0F0BD00BF2C9C002426
:1010A0001C4B00221C494FF0400C30B5054689B05E
:1010B0000220596007219A601A620124DA620A222A
:1010C0004FF4006EDC6006922022CDE9000104207E
:1010D0000821CDE9020103201021CDE904010820F7
:1010E0006946C3E904024FF4C072181DC3E906C281
:1010F0004FF48052C3E909E20BF03CF838B92846B6
:10110000FFF782FF003818BF012009B030BD20462C
:1011100009B030BD289C002440410052614A0021A2
:10112000D0B513688EB00A91002B40F0B9805E4BA9
:1011300001214FF683700C2411600221D3F8D420D2
:101140000026032742F48052C3F8D420D3F8D420D9
:1011500002F480520092009AD3F8E02042F010028C
:10116000C3F8E020D3F8E02002F010020192019AC7
:10117000D3F8E02042F04002C3F8E020D3F8E020AA
:1011800002F040020292029AD3F8E02042F00802F4
:10119000C3F8E020D3F8E02002F008020392039A9B
:1011A000D3F8E02042F48072C3F8E020D3F8E020C6
:1011B00002F480720492049AD3F8E02042F0800294
:1011C000C3F8E020D3F8E02002F080020592059AEF
:1011D000D3F8E02042F02002C3F8E020D3F8E0206A
:1011E00002F020020692069AD3F8E02042F00402B0
:1011F000C3F8E020D3F8E0300C9403F00403079325
:101200000323079A0B93CDE9080108A9274805F0A5
:1012100093FB48F23712022308A925480C94CDE924
:101220000823CDE90A6705F087FB4CF2037202231D
:1012300008A920480C94CDE90823CDE90A6705F0F8
:101240007BFB40F2FF62022308A91B480C94CDE906
:101250000823CDE90A6705F06FFB4FF60C720223F5
:1012600008A916480C94CDE90823CDE90A6705F0D2
:1012700063FB4FF63F02022308A911480C94CDE905
:101280000823CDE90A6705F057FB2022022308A9AD
:101290000A480C94CDE90A67CDE9082305F04CFB18
:1012A0000EB0D0BD249C0024004402580010025807
:1012B00000180258000C025800200258001C025866
:1012C0000014025830B5184C154685B0046004F17E
:1012D000080EEC460FC98EE80F00D4ED047AF5EE47
:1012E000C07A8CE80F00F1EE10FA1ADDB7EE006A52
:1012F00094ED057A27EE277AC6EE276A84ED0D7AFB
:10130000C4ED0C6A6DB1204640F8185F02F074F924
:10131000064903690020064A2162A262E36005B023
:1013200030BD012005B030BD609C0024002000309D
:101330000000003000680830704700BF00681830B7
:1013400002F05CB910B4074B4FF07E5130240022FC
:10135000032019619C60D8605DF8044B5961C3E9B2
:1013600006227047609C0024704700BFF8B5134FF9
:101370003C687F2C07D98023114A42F224411C4645
:101380003B60A2F87E100F4D2B68012B0AD90C4E42
:101390000D4D22463146284600F02CF90028F8D1A0
:1013A0003860F8BD22460649074800F023F90028B6
:1013B000F7D12B68386001332B60F8BD9C9C00246A
:1013C000A09C0024989C0024209D002430B4154C3F
:1013D0002168F1B14B1E144DE81810F801298C4614
:1013E00019460A2A01D00D2A02D14BB1013BF4E77C
:1013F0000CF102037F2B10D98023236030BC70478F
:101400000122022323600D200A236854AB5430BC10
:10141000704701220223044DF4E70CF101026146FA
:10142000F0E700BF9C9C0024A09C002410B5094C50
:1014300002460B46084821680844C1F1800112F0B9
:10144000FFF9236818442060FFF7C0FFFFF78EFF05
:1014500010BD00BF9C9C0024A09C00240FB400B5CC
:1014600083B004A951F8040B0191FFF7DFFF03B02B
:101470005DF804EB04B0704710B5044600210A483B
:1014800000F032F8002C094B14BF02220022084859
:101490001A60FFF7E3FF0748FFF7E0FF0A20BDE807
:1014A000104002F07DB900BF209D0024989C0024CC
:1014B000085C0108185C0108064A0749074808B596
:1014C00011F0F4FB034A04490548BDE8084011F057
:1014D000EDBB00BF0000002469130008209D00241C
:1014E000249D0024704700BF012910B506D00229B1
:1014F00015D051B1BDE8104007F0DCBD0A463448B4
:1015000034490CF05BF9E8B1FEE7334B0A46334C43
:10151000334934481C600CF051F968B1FEE70122F0
:101520002C492B480CF04AF900B1FEE72E49284817
:101530000CF068F9C0B1FEE72B492A480CF062F9BB
:1015400060B1FEE7284922480CF05CF900B1FEE7E3
:1015500026491F480CF0D2F808B3FEE72449214879
:101560000CF0CCF8A8B1FEE7204919480CF0C6F8F9
:1015700000B1FEE716480CF06DF9024640B9164B73
:10158000164C174917481C600CF018F968B1FEE7B3
:10159000FEE714480CF05EF90028ABD0FEE70C48DB
:1015A0000CF058F90028A5D0FEE70F490D480CF0C3
:1015B00029F900B1FEE70E490A480CF09FF800B186
:1015C000FEE708480CF046F9002893D0FEE700BF7C
:1015D00004A00024A8000024E0A20024E5140008D0
:1015E0008C000024289D00241001002468000024A1
:1015F00054000024084691B208B502F0BDFB003843
:1016000018BF012008BD00BF014806F0E9BD00BFBA
:1016100030D20024014806F0E3BD00BF30D20024E0
:10162000014806F0DDBD00BF30D2002410B4002315
:1016300083B00324018080F8503080F85120C0E945
:10164000014303B05DF8044B704700BF2DE9F04F34
:10165000BE4F0024BE4D8DB0037007F140034260C1
:10166000804616468946202221463846C5F88835E8
:10167000C5F88475CDE90244CDE90444CDE90644BA
:10168000CDE90844CDE90A4411F06EFB2022214641
:1016900005F26250C5F85145C5F85545C5F859459C
:1016A000C5F85D4511F060FB85F85065D8F8043049
:1016B00085F86846002B62D005F5AA6A09F1500B3F
:1016C000264609EB040128195222013611F03EFB8F
:1016D0004FF0000327F8023B1BF804300AF8013FE3
:1016E000002B70D0D8F804304FF0010254349E42E1
:1016F00085F86826E5D3974A082195F850350026E5
:10170000C5F88C254FF4802293480027C5F8A435EE
:101710000023C5F890250122C5F89C1595F8681698
:10172000C5F8943585F8A035C5F89825C0E9006757
:1017300000293ED0C5F8B82585F8A13585F8A8352B
:10174000002298F80030C5F8BC25C5F8C025002B4C
:1017500040D0012200200121013B85F8C4257F4AA9
:10176000C2E90001082B37D8DFE813F0BD00C20042
:10177000C700CC00D100D600DB00E100E800C5F8CE
:101780009435F6B285F8A0350020724B0021C5F8DB
:10179000A465C5F88C354FF48023C5F89035012336
:1017A000C5F898350823C5F89C3505F5B663C3E937
:1017B0000001012385F8A135002385F8A83503230E
:1017C000C5F8B835BCE7D8F804305434B3423FF616
:1017D00078AF90E785F8C435614803F07DFB034698
:1017E00008B1FFBEFEE702A95D48029303F0D4FCF6
:1017F0000446002875D1042340F2FF720A90CDE917
:10180000082395F85035002B00F0F58006234FF0A3
:101810005409019309FB045393F85130072B07D85F
:10182000DFE803F0595C5653504D4A0407230793F1
:1018300026B206EB4606C6EBC60605EB8608B700E1
:10184000404600F037FB09FB045393F85030042B5B
:1018500000F3AD80022B00F3C08000F0BC802B1998
:10186000002283F8402515F8262098F80130002A38
:101870007CD0022A00F08D80012A40F0B480012B38
:1018800000F0B380002B374B18BF0023059305A948
:10189000019B3348069302F01FFF002840F0AE8002
:1018A000013495F85035E4B2A34240F2A4802E4BA7
:1018B00053F824300193ADE706230793B8E70523D7
:1018C0000793B5E704230793B2E703230793AFE732
:1018D00002230793ACE700230793A9E701230793AB
:1018E000A6E7FFBEFEE70320402142E9020173E7BD
:1018F0000720602142E902016EE70F20802142E9C2
:10190000020169E71F20A02142E9020164E73F20AC
:10191000C02142E902015FE77F20E02142E90201A4
:101920005AE7FF204FF4807142E9020154E740F288
:10193000FF104FF4907142E902014DE740F2FF3091
:101940004FF4A07142E9020146E700BF00400030B9
:10195000E8A200240020024098A80024B8A800248F
:1019600074A800240002B025285C0108062B36D09C
:10197000072B3CD0022B49D0032B49D0002B4BD056
:10198000012B47D0042B49D0052B254B18BF002332
:101990007CE7042B25D0052B2BD08BB3012B31D02A
:1019A000022B31D0032B1F4B18BF00236EE70323FC
:1019B000143705EB040B4FF0000A2F448BF8403529
:1019C00038460AF1010A00F075FA9BF840351437E1
:1019D0005345F5DC47E70123EAE70223E8E7124B2A
:1019E00054E7124B52E7002350E7114B4EE7114BDF
:1019F0004CE7114B4AE70DB0BDE8F08FFFBEFEE7A4
:101A00000E4B43E70E4B41E70E4B3FE70E4B3DE7D6
:101A10000E4B3BE70E4B39E70E4B37E70E4B35E7E6
:101A20000000B84F002090360800900C1000C01045
:101A30002000F0148000501D000180210004002AC5
:101A40000008302E001060320040C03A0080F03EA6
:101A500000005247000021430000844B38B5094C78
:101A600040F2FF724FF0011104F28C55284603F04A
:101A700041FB94F85025D4F884152846BDE8384039
:101A800003F0A0B8E8A20024044B0F29D3F8843552
:101A900098BF03EB41031888704700BFE8A20024F9
:101AA000244B02689A4200D07047234A00232348FF
:101AB000D2F8D81030B5224C41F0200183B0C4F8E0
:101AC000F0050920C4F8F83504F5BE65C4F8F4053E
:101AD0004FF48060C2F8D8104FF40061D2F8D820DB
:101AE000C4F8000694F8680602F02002C4F8FC3539
:101AF00098420192C4F804164FF40051C4F810360D
:101B00002846C4F81436019B14BF00234FF4807399
:101B1000C4F80816C4F80C3603F06AFD08B1FFBE1D
:101B2000FEE704F28C53C4F8D855C4F8283603B045
:101B300030BD00BF00200240004402584000024077
:101B4000E8A20024014804F0A5BB00BFD8A80024E7
:101B500002682DE9F84F504B9A4201D0BDE8F88F4A
:101B60004E4D95F86836002BF8D095F85035002B7F
:101B70007BD0002405F13C0905F2625605F5AA6701
:101B8000A04613E003F0010117F811BCA9F12800E9
:101B900000F060FBBBF1010F25D895F850350134FA
:101BA00009F154090236A2B293422BD917F8012F3A
:101BB000002AF4D0D5F884350021327833F81400A7
:101BC000D5F8883503EB041323F81200338801336A
:101BD0009BB233805FFA83FA3A789A42D2D88A4627
:101BE000A6F80080D0E7CAF34001A9F1140000F084
:101BF00031FBBBF1020FCAF38001CED0484600F0A2
:101C000029FBCAE7002395F868062549092298426E
:101C1000C5F8F8354FF48060C5F8F015C5F8F4251F
:101C20004FF400614FF40052C5F8FC3508BF4FF483
:101C30008073C5F80006C5F80416C5F8082600220A
:101C40001848C5F80C36C5F81026C5F8142603F058
:101C5000CFFC08B1FFBEFEE795F85025D5F88415F6
:101C60001148BDE8F84F02F0ADBF0D4909224FF40D
:101C70008060C5F8F835C5F8F0154FF40061C5F877
:101C8000F4254FF40052C5F8FC35C5F80006C5F838
:101C90000416C5F80826D2E700200240E8A2002476
:101CA00040000240D8A8002474A80024704700BF58
:101CB0000C4B4FF60B71002203F5A8601980DA6017
:101CC00099821A6219855A6399879A64C3E9012235
:101CD000C3E90622C3E90B22C3E910225433984218
:101CE000ECD17047E8A2002484460FC98CE80F00AD
:101CF0009CF800300B2B30D09CF801200F2A2CD8F8
:101D0000022900B591B041D0032902D0012900D0A9
:101D100000210C91DCF80810012902D0022918BF1B
:101D200000210D91DCF80C10022904D0032902D007
:101D3000012918BF00210A2B0E910FD85B4800EB38
:101D40008320CCF810000A2B17D8DFE803F0A0920C
:101D50008476685A4C3E3022090070470020F0E734
:101D6000534BD3F8E01041F48061C3F8E010D3F88E
:101D7000E03003F480630A930A9B01230BA993408C
:101D80000B9304F0D9FD11B05DF804FB11210C9107
:101D9000C0E7474BD3F8E01041F40071C3F8E010FE
:101DA000D3F8E03003F400730993099BE5E7404B57
:101DB000D3F8E01041F48071C3F8E010D3F8E030BC
:101DC00003F480730893089BD7E7394BD3F8E010EE
:101DD00041F08001C3F8E010D3F8E03003F0800355
:101DE0000793079BC9E7324BD3F8E01041F040015D
:101DF000C3F8E010D3F8E03003F040030693069BED
:101E0000BBE72B4BD3F8E01041F02001C3F8E01002
:101E1000D3F8E03003F020030593059BADE7244B96
:101E2000D3F8E01041F01001C3F8E010D3F8E0302F
:101E300003F010030493049B9FE71D4BD3F8E010BD
:101E400041F00801C3F8E010D3F8E03003F00803D4
:101E50000393039B91E7164BD3F8E01041F0040184
:101E6000C3F8E010D3F8E03003F004030293029BC0
:101E700083E70F4BD3F8E01041F00201C3F8E01004
:101E8000D3F8E03003F002030193019B75E7084BA0
:101E9000D3F8E01041F00101C3F8E010D3F8E030CE
:101EA00003F001030093009B67E700BF00000258A6
:101EB0000044025803780B2B2DD042780F2A2AD8E1
:101EC0004168022910B590B03ED0032902D0012903
:101ED00000D000210C918168012902D0022918BF8D
:101EE00000210D91C168022904D0032902D00129E3
:101EF00018BF00210A2B0E910ED85B4C04EB8324F3
:101F000004610A2B17D8DFE803F009A092847668F1
:101F10005A4C3E30220070470024F1E7534BD3F86F
:101F2000E01041F00101C3F8E010D3F8E03003F015
:101F300001030093009B01230BA9204693400B93C0
:101F400004F0FAFC10B010BD11210C91C3E7474B0F
:101F5000D3F8E01041F48061C3F8E010D3F8E0302A
:101F600003F480630A930A9BE5E7404BD3F8E01043
:101F700041F40071C3F8E010D3F8E03003F40073CB
:101F80000993099BD7E7394BD3F8E01041F48071EE
:101F9000C3F8E010D3F8E03003F480730893089B93
:101FA000C9E7324BD3F8E01041F08001C3F8E010EC
:101FB000D3F8E03003F080030793079BBBE72B4B7C
:101FC000D3F8E01041F04001C3F8E010D3F8E0305E
:101FD00003F040030693069BADE7244BD3F8E010D3
:101FE00041F02001C3F8E010D3F8E03003F0200303
:101FF0000593059B9FE71D4BD3F8E01041F01001BE
:10200000C3F8E010D3F8E03003F010030493049B0E
:1020100091E7164BD3F8E01041F00801C3F8E01047
:10202000D3F8E03003F008030393039B83E70F4BDF
:10203000D3F8E01041F00401C3F8E010D3F8E03029
:1020400003F004030293029B75E7084BD3F8E010FA
:1020500041F00201C3F8E010D3F8E03003F00203CE
:102060000193019B67E700BF00000258004402583B
:1020700010B592B0ADF804100180C9B2149C0B29C0
:10208000C460C0E901233FD090F801C0BCF10F0F3C
:102090003AD8022A3FD0032A02D0012A00D00022D7
:1020A0000E92012B02D0022B18BF0023022C0F939B
:1020B0002CD0032C2AD0012C28D000230A291093DD
:1020C00027D85C4A02EB812202610A2914D8DFE892
:1020D00001F0A39587796B5D4F4133250600564B80
:1020E000D3F8E01041F48061C3F8E010D3F8E03099
:1020F00003F480630C930C9B01230DA9104603FA93
:102100000CF30D9304F018FC12B010BD0A291094C2
:10211000D7D90022D8E711220E92C2E7464BD3F856
:10212000E01041F40071C3F8E010D3F8E03003F49C
:1021300000730B930B9BDFE73F4BD3F8E01041F4A8
:102140008071C3F8E010D3F8E03003F480730A9391
:102150000A9BD1E7384BD3F8E01041F08001C3F877
:10216000E010D3F8E03003F080030993099BC3E744
:10217000314BD3F8E01041F04001C3F8E010D3F840
:10218000E03003F040030893089BB5E72A4BD3F8EF
:10219000E01041F02001C3F8E010D3F8E03003F084
:1021A00020030793079BA7E7234BD3F8E01041F0E8
:1021B0001001C3F8E010D3F8E03003F010030693E9
:1021C000069B99E71C4BD3F8E01041F00801C3F8D7
:1021D000E010D3F8E03003F008030593059B8BE78C
:1021E000154BD3F8E01041F00401C3F8E010D3F828
:1021F000E03003F004030493049B7DE70E4BD3F817
:10220000E01041F00201C3F8E010D3F8E03003F031
:1022100002030393039B6FE7074BD3F8E01041F0F1
:102220000101C3F8E010D3F8E03003F0010302939A
:10223000029B61E7000002580044025808B50121E2
:1022400043780069994089B204F078FD003818BFDE
:10225000012008BD01230A464178006903FA01F113
:1022600089B204F071BD00BF10B5002386B0122200
:1022700004460493CDE902230368022B1FDC002BE4
:1022800001DB0423059323790A2B1FD8114800EBA7
:1022900083206279012301A99340019304F04CFB50
:1022A000A3790A2B14D80B4800EB8320E279012391
:1022B00001A99340019304F03FFB06B010BD032B2E
:1022C000E1D10623059323790A2BDFD90020E0E72B
:1022D0000020EBE700000258634A0368934210B500
:1022E0008CB028D0614A934258D0614A934200F0A2
:1022F0009480604A934201D00CB010BD5E4C5F48A0
:10230000D4F8E03043F00203C4F8E030D4F8E03011
:1023100003F002030A930A9BFFF7A6FFD4F8F430F8
:1023200043F08003C4F8F430D4F8F43003F08003B1
:102330000B930B9BE0E7504C5148D4F8E03043F04E
:102340000203C4F8E030D4F8E03003F00203019354
:10235000019BFFF789FFD4F8E83000221F2043F4E7
:1023600000131146C4F8E830D4F8E83003F4001341
:102370000293029BD4F8D83043F00103C4F8D8305C
:10238000D4F8D83003F001030393039B02F07EFFDF
:102390001F200CB0BDE8104002F0B6BF364C3948E3
:1023A000D4F8E03043F08003C4F8E030D4F8E030F3
:1023B00003F080030493049BD4F8E03043F002035D
:1023C000C4F8E030D4F8E03003F002030593059B35
:1023D000FFF74AFFD4F8E8300022212043F48003BD
:1023E0001146C4F8E830D4F8E83003F480030693CB
:1023F000069BD4F8D83043F00103C4F8D830D4F8A1
:10240000D83003F001030793079B02F03FFF212020
:102410000CB0BDE8104002F077BF1B48FFF724FF67
:10242000154B00224820D3F8E840114644F400043C
:10243000C3F8E840D3F8E84004F400040894089C8A
:10244000D3F8D84044F00104C3F8D840D3F8D830CA
:1024500003F001030993099B02F018FF48200CB018
:10246000BDE8104002F050BF00540040005800404A
:10247000005C0040001C005800440258F8AB0024E7
:1024800058A9002438AA002418AB00242DE9F043F1
:102490001A4B87B000254FF010099E46EC46184BAA
:1024A000FF22E04667461A700EF118060EF130045E
:1024B000CDE90055CDE90255ADF80090BCE80F001C
:1024C000CDE90455AEE80F009CE803000095ADF897
:1024D00000908EE80300B8E80F000FC69CE80300E8
:1024E0000095ADF8009086E803000FCF0FC49CE87C
:1024F000030084E8030007B0BDE8F0830400002473
:1025000054A9002410B5EFF3108472B6084B1A7862
:10251000120602D504B962B610BD1878054B40B258
:10252000C0EBC00003EB4010143003F0B3FEF1E742
:1025300054A9002458A90024014805F03FBD00BF5C
:10254000E4A90024014805F039BD00BFC4AA002455
:10255000014805F033BD00BFA4AB00242DE9F043D2
:102560000D6885B0404EC5EBC503032D4FEA4317F8
:1025700006EB4313036041DCCA680C46012A3DD8D0
:102580004FEAC5084CD020689C466168A8EB050955
:10259000A2680DF1100EE36806EB4919ACE80F00D4
:1025A000324B227C8CF80020D9F808C00FCB0EE902
:1025B0000F000EEB8503BCF1010F53F8103CC9F876
:1025C0008C3032D0BCF1020F43D0BCF1000F36D0BA
:1025D000227C8C37A8EB050500233744520006EB1C
:1025E000451601213846C6F8AC30C6E92521C6E9B2
:1025F0002733C6E9293305F0A3F918B1012005B046
:10260000BDE8F0830146384605F0E4FC0028F5D12A
:102610000146384605F008FD003818BF0120EEE7F6
:102620000A7C103A672AAED9E8E701F069FA104B44
:1026300098420CBF0F4B104BC9F89030C8E701F01F
:102640005FFA0B4B98420CBF0C4B0D4BC9F8903006
:10265000BEE701F055FA064B98420CBF094B0A4BF6
:10266000C9F89030B4E700BF58A90024085B0108FE
:10267000000E27072D0FB0303211D0205F4390603D
:102680008A62E030200BA0101A0980102DE9F04179
:10269000D0F8008082B00D4617461E4608F18C0423
:1026A000204605F093FC2028FAD1D8F80C3073B9F5
:1026B0006D002046089C33463A46A9B2009405F0C6
:1026C00095F9003818BF012002B0BDE8F081089BE1
:1026D00032463946204605F047FBF2E7094B6FF0DA
:1026E000F41110225960C3F8E4101A7483F8F02032
:1026F000C3F8C41183F8D021C3F8A41283F8B02220
:10270000704700BF58A9002430B5002395B04FF49E
:102710008071062204460B9306921393CDE90C13A5
:10272000CDE90E33CDE9113301F0ECF907282BD0B8
:1027300004F1100541F2883206A9284606F0EAFDA8
:1027400028B10123184684F85C3015B030BD022250
:10275000022306A92846CDE9002310220123CDE952
:10276000022300224FF48003CDE9042305224FF019
:10277000807306926A460F9341F2883306F036FF63
:102780000028DED115B030BD0323012084F85C3071
:1027900015B030BD0000000070B50023A4B04FF0AC
:1027A00080724FF480750446ADF806300D93CDE984
:1027B00010320122CDE90E53CDE91223CDE91433B5
:1027C000002943D0F02300F1100508AEADF8063023
:1027D000C02341F2883231462846089306F09AFD1C
:1027E00028B10123184684F85C3024B070BD41F252
:1027F00088320DF10601284606F0F6FD0346002852
:10280000EFD105224FF480711E93284616924FF0A7
:1028100080721B9321931F9202AA9FED1F7BCDE92B
:102820001C13CDE922338DED027B9FED1D7B41F220
:10283000883316A98DED047B9FED1B7B8DED067B08
:1028400006F0D4FE0028CCD124B070BD00F11005F4
:1028500008AE612341F2883231462846089306F0DB
:1028600059FD0028BDD141F288320DF106012846FC
:1028700006F038FE0028B4D1BDF80630204623F01B
:10288000780343F04003ADF80630FFF73DFF002822
:102890009ED0A6E7AFF3008000000000010000001A
:1028A00010000000010000000000000000004000D7
:1028B0002DE9F04F00234FF4807501264FF080780A
:1028C00004462DED028BABB08DF8073013932193A6
:1028D000299314950E96CDF85C80CDE91533CDE99A
:1028E0001863CDE91A33CDE92253CDE92433CDE97C
:1028F000273306231C9301F005F9072808D004F1BB
:10290000100741F288321CA9384606F003FD40B199
:102910000123184684F85C302BB0BDEC028BBDE877
:10292000F08F4FF0020A4FF0020B4FF0050941F211
:10293000883308AA1CA93846CDF89480CDF8709049
:102940009FED2F8BCDE908AB4FF0000A4FF4800BC1
:102950008DED0A8BCDE90CAB06F048FE0028D7D1EF
:1029600041F2883238460EA906F0D4FC0028CFD1B7
:10297000402341F288320DF1070138468DF80730C7
:1029800006F032FD0028C3D141F288330EA902AA15
:102990003846CDF83890CDF85C809FED1B7BCDE9B3
:1029A00006AB8DED027B9FED1A7B8DED047B06F06F
:1029B0001DFE03460028ABD1CDF870904FF0010901
:1029C000CDF894804FF00008219308AA29931CA900
:1029D00038462295CDE92333CDE9273341F28833B8
:1029E0008DED0A8BCDE90CABCDE9088906F0FEFD33
:1029F000002891D0304684F85C608DE7AFF300800A
:102A00001000000001000000400000004300000032
:102A100000800000010000002DE9F04F00234FF47A
:102A2000807601254FF0807804462DED028BABB007
:102A3000CDE9153313932193299314960E95CDF870
:102A40005C80CDE91853CDE91A33CDE92263CDE995
:102A50002433CDE9273306231C9301F053F80728CC
:102A600008D004F1100741F288321CA9384606F05C
:102A700051FC40B10123184684F85C302BB0BDEC0A
:102A8000028BBDE8F08F4FF0020A4FF0020B4FF0BF
:102A9000050941F2883308AA1CA93846CDF894806C
:102AA000CDF870909FED308BCDE908AB4FF0000A68
:102AB0004FF4800B8DED0A8BCDE90CAB06F096FD43
:102AC0000028D7D141F2883238460EA906F022FC00
:102AD0000028CFD1402341F288320DF1070138465A
:102AE0008DF8073006F080FC0028C3D19DF8073030
:102AF00008AA0C90FF2008934FF400430EA90B95F1
:102B0000CDF83890CDF85C80CDE909034FF480030F
:102B100038460D9341F2883306F068FD03460028DD
:102B2000A8D10022219329931CA938462296CDF8DA
:102B30007090CDF89480CDE92333CDE9273301237C
:102B4000CDE9022341F2883302AA8DED048BCDE951
:102B500006AB06F04BFD002890D0284684F85C5068
:102B60008CE700BFAFF30080100000000100000000
:102B700070B50122AAB004460D465F48C02104F09A
:102B8000E3F800265D4B06965B4895FAA5F5CDE97E
:102B90000466D3F8E02042F02002C3F8E020C0220F
:102BA000D3F8E03003F0200301930123019902A937
:102BB000CDE9022303F0C0FE142001F029FD3246C6
:102BC000C0214D4804F0C0F8142001F021FD01227D
:102BD000C021494804F0B8F8142001F019FD012380
:102BE000474AE6612261C4E90533002D77D0B5FA82
:102BF00085F1013900234FF4807604F11005C4E912
:102C000008162846C4E90B3306F016FB30B1012341
:102C10001D4684F85C3028462AB070BD66231690A5
:102C2000179041F2883213900EA91B900E93CDE9B4
:102C30001460CDE91900284606F06CFB0028E6D1A7
:102C400099230EA941F2883228460E9306F062FBC2
:102C50000028DCD105230121249008AA2190279087
:102C60001C934FF08073CDE92260CDE9280010203D
:102C7000259341F28833CDE90A019FED1D7B0020A9
:102C80004FF48001CDE90C011CA928468DED087B8D
:102C900006F0ACFC0028BAD12046FFF7BDFE0028A4
:102CA000B5D1284606F024FB05460028AFD123798C
:102CB0000A2B18D963790121994003F077FFA37992
:102CC0000A2B0ED80F4800EB83200126E17906FA83
:102CD00001F103F06BFF266684F864609BE71F2117
:102CE00088E70020F1E7074800EB8320E2E700BF18
:102CF00000000000010000000014025800440258C7
:102D000000500052000002582DE9F041684CA2B07A
:102D10000D46046000F0F6FE07284BD028682346D5
:102D2000AA68696807C3AA89184620F8042B267B7D
:102D3000677B06F0DDFA002834D1012E94F8643068
:102D400014BF4FF480154FF400052366002B39D0D3
:102D5000584B95FAA5F523610123C4E905330023F7
:102D6000E361002D6ED0B5FA85F1013900234FF4EF
:102D700080785148C4E90818C4E90B3306F05CFABE
:102D800080B966230B90139041F2883206A906930E
:102D9000CDE90C80CDE90E00CDE91100464806F0E2
:102DA000B9FAA0B101231D4684F85C30284622B050
:102DB000BDE8F08101250323284684F85C3022B069
:102DC000BDE8F08129462046FFF7D2FEC0E79923EF
:102DD00041F2883206A93848069306F09BFA00288B
:102DE000E0D105231C9019906A4614934FF080732C
:102DF000219014A91D9341F288339FED277BCDE9E3
:102E00001A80CDE91F008DED007B9FED257B2A48C0
:102E10008DED027B9FED247B8DED047B06F0E6FBC0
:102E20000028BFD131462248FFF7B6FC0028B9D1AF
:102E30001F48FFF73DFD05460028B3D127B1022307
:102E40002366B3E71F2191E7EB23002600271890A4
:102E500014934FF440631F9006AA1B934FF4005342
:102E6000209014A917934FF4404313481C93A023B8
:102E7000CDF868801693062319934FF08053219361
:102E80004FF04073CDE906671D9306F027FC00283C
:102E9000D5D087E7AFF300800000000001000000FC
:102EA00010000000010000000000000000004000D1
:102EB000D8AC002400500052E8AC00245E4B0268FD
:102EC0002DE9F0419A428CB04FF00004CDE907445F
:102ED000CDE909440B9402D00CB0BDE8F081574B0A
:102EE000574DD3F8D420574F42F48042564EDFF866
:102EF0005C81C3F8D420D3F8D42002F4804200923D
:102F0000009ADA6F42F48042DA67DA6F22F4804284
:102F1000DA67D3F8E02042F04002C3F8E020D3F8AB
:102F2000E02002F040020192019AD3F8E02042F042
:102F30002002C3F8E020D3F8E02002F02002029241
:102F4000029AD3F8E02042F01002C3F8E020D3F850
:102F5000E02002F010020392039AD3F8E02042F03E
:102F60000202C3F8E020D3F8E03003F00203049338
:102F7000049B22E014F0FC0252D103F1200155F829
:102F8000211008780A2839D891F801C00121099246
:102F900007EB802201FA0CF107910221CDF8148091
:102FA000089103210A910CA90B4413F81C3C07A9B2
:102FB000104601340B9303F0BFFC2A6EE3B2002AE3
:102FC000D8D0052B2CD803F11A0255F822100A7814
:102FD0000A2A18D9497801228A4002210792002240
:102FE000CDE9081203210A910CA90B4496E80300CD
:102FF0000590ADF8181013F81C3CD8E7487801216B
:1030000009928140C8E74878012107EB822281407C
:10301000022007910021CDE9080103210A91E3E78D
:1030200000225C20114602F031F95C2002F06CF9BC
:103030000CB0BDE8F08100BF0050005200440258BF
:10304000D8AC002400000258685C01080A0A090A8A
:103050000268F8B5194B9A4200D0F8BD184A00240E
:10306000184F0125D2F8D430174E23F48043C2F80C
:10307000D43011E014F0FC0F1BD157F821301A782E
:103080000020597801340A2A05FA01F198BF06EBAD
:10309000822089B203F08AFDE3B23A6E03F1200187
:1030A000002AE7D0052B03F11A0202D857F8223084
:1030B000E5E75C20BDE8F84002F034B9005000526A
:1030C00000440258D8AC002400000258014806F021
:1030D00091BB00BFE8AC00240E4B6FF0F41200214E
:1030E000981C30B41C1D9D1D9A605D671C67C3E968
:1030F0000022C3E9181103F10A0203F1080130BCF0
:10310000C3E91A30C3E91E12C3E92030C3E9221211
:10311000704700BFD8AC002438B5036871B9026AA3
:1031200000F1280500F5AC74012A0CBF00214021F4
:103130008BBB1D4B5722C0F858310DE0426A00F19D
:10314000C00500F5E874012A0CBF00214021EBB155
:10315000164B5A22C0F8D03100232046C4E9012181
:103160004FF480524FF48061636262614FF4804299
:10317000C4E903314FF48073C4E906234FF40033EC
:10318000236202F035FA58B1FFBEFEE7084B582221
:10319000C0F8D031E0E7074B5922C0F85831DBE7DF
:1031A000C5E92044A56338BD10000240700002400C
:1031B00028000240580002402DE9F043C28889B03F
:1031C00081468388ADF800200089B9F80A10B9F863
:1031D0000C20ADF80230D9F81830ADF80400ADF885
:1031E0000610ADF80820002B3FD0D9F81C70B7FAB4
:1031F00087F77F09012502236C460DF10A06DFF8E7
:1032000070800695CDE9043599F804202078824233
:10321000627818D0D9F80010F9B1012902D1F8B1BB
:103220000A2107910A2805FA02F203A994BF08EBC4
:1032300080200020039203F07FFB0234A642E3D1FA
:1032400009B0BDE8F08399F805109142E2D1002F52
:10325000F3D0D9F800100029DFD106210791E1E76A
:10326000022A0CBF08210A21DBE70127C2E700BFC1
:1032700000000258534A0368934230B505468BB0AC
:1032800055D02032934252D04F4A934204D020323C
:10329000934201D00BB030BD4C4C4D48D4F8E030D7
:1032A00043F00103C4F8E030D4F8E03003F0010348
:1032B0000593059BD4F8E03043F00803C4F8E030F0
:1032C000D4F8E03003F008030693069BD4F8E0300E
:1032D00043F04003C4F8E030D4F8E03003F040039A
:1032E0000793079BD4F8F03043F40003C4F8F030A0
:1032F000D4F8F03003F400030893089BFFF75CFF59
:10330000D4F8D830296843F001032F4A3048C4F874
:10331000D830891AD4F8D83018BF012103F001033E
:103320000993099B0BB0BDE83040FFF7F5BE274C71
:103330002848D4F8E03043F00103C4F8E030D4F872
:10334000E03003F001030093009BD4F8E03043F039
:103350001003C4F8E030D4F8E03003F01003019318
:10336000019BD4F8E03043F04003C4F8E030D4F8D7
:10337000E03003F040030293029BD4F8F03043F4B2
:103380008003C4F8F030D4F8F03003F480030393E2
:10339000039BFFF711FFD4F8D830296843F00103ED
:1033A000084A0C48C4F8D830891AD4F8D83018BF65
:1033B000012103F001030493049B0BB0BDE83040EE
:1033C000FFF7AABE04580140045C014000440258C3
:1033D000C4AF002468AD0024014802F05BBF00BF09
:1033E000C0AE0024014802F055BF00BF38AF002432
:1033F000014802F04FBF00BF1CB10024014802F099
:1034000049BF00BF94B100242DE9F0470C684FF488
:103410001776774F86B004FB06F6012C07EB0608FB
:10342000C0F8008000F39F8000230D468E46C446FE
:10343000C8F85032C8E9923369A3D3E900236AA1DE
:10344000D1E90001CDE9022306AB03EB8403CDE90A
:10345000040153F810AC53F8089CBEE80F00ACE828
:103460000F00BEE80F00ACE80F009EE80300C8F8AC
:1034700028A0C8F8C0908CE803002B69042B0CD856
:10348000DFE803F078828C9603004FF41773594AF3
:1034900003FB04739A64C3F8E020AA692B6A002A2C
:1034A00042D0002B4FF4177308BF022203FB0473B2
:1034B00018BF0322DA6201221A63EA696B6A002AE2
:1034C0003FD1191E4FF4177318BF012103FB04737A
:1034D000C3E931126969012943D0022947D1032583
:1034E00000214FF4177306F128002A46019103FBCF
:1034F0000473002438445C645C63DC65C3F8DC401E
:10350000C3F8CC40C3F8F440C3E90F44C3E9154401
:10351000C3E93544C3E93B44022308F071FD019936
:1035200000284FD0FFBEFEE7191E4FF4177318BFD7
:10353000012103FB0473C3E90B12EA696B6A002AD9
:10354000BFD0002B4FF417730CBF0222032203FBE2
:103550000473C3F8C4200122C3F8C8206969012993
:10356000BBD10225BDE7012006B0BDE8F0870025EC
:103570002946B6E74FF417734FF4FA5203FB04736E
:103580009A64C3F8E02088E74FF417734FF47A5237
:1035900003FB04739A64C3F8E0207EE74FF41773CB
:1035A0004FF4FA4203FB04739A64C3F8E02074E713
:1035B0004FF417734BF6803203FB04739A64C3F81D
:1035C000E0206AE706F1C00002232A46384408F0EA
:1035D00017FD0028C8D0FFBEFEE700BFAFF3008094
:1035E00004580140045C014024580140245C01401F
:1035F00068AD0024007701000068704703681B690C
:10360000042B05D8044A02EB830393ED000A7047AC
:103610009FED020A704700BF705C010800803B47C5
:10362000064B6FF0F4124FF60B71C3E9012299813A
:10363000A3F86812C3E99822704700BF68AD002460
:10364000704700BF08B500F0D1FFBDE8084001F0A9
:10365000E5BE00BF064808B503680BB103F078FB70
:10366000044803681BB1BDE8084004F0B9BD08BDBB
:1036700050DE002440D70024064808B503680BB18B
:1036800003F066FB044803681BB1BDE8084004F082
:10369000A7BD08BD50DE002440D70024064808B569
:1036A00003680BB103F054FB044803681BB1BDE889
:1036B000084004F095BD08BD50DE002440D700242A
:1036C000364BDA6A520062D59A6A9A6A9A6A9B6A9B
:1036D000180600D500BE314B9B6A990600D500BE86
:1036E0002E4B9B6ADA0600D500BE2C4B9B6A1B074B
:1036F00000D500BE294B9B6A980700D500BE274B1A
:103700009B6AD90700D500BE244B9B6A1A0400D5DA
:1037100000BE224B9B6A9B0400D500BE1F4B9B6AD8
:10372000D80400D500BE1D4B9B6A190500D500BE0C
:103730001A4B9B6A5A0500D500BE184B9B6A9B0525
:1037400000D500BE154B9B6AD80500D500BE134BB3
:103750009B6A990100D500BE104B9B6ADA0100D527
:1037600000BE0E4B9B6A1B0300D500BE0B4B9B6A31
:10377000580300D500BE094B9B6A990300D500BED3
:10378000064B9B6ADA0306D400BE00BEFEE7DB6A86
:103790009B07FAD5F8E700BEF6E700BF00ED00E0B2
:1037A00000F036BF014601480CF058B820B20024A2
:1037B0000A4B9B6803F17843B3F5003F0BD3084BEA
:1037C000986848B19868012806D09868022803D004
:1037D0009B68032070470120704700BF00ED00E0A8
:1037E00000008038000000002DE9F041CEB0044612
:1037F0004C2200210AA80FF0B7FA2022002102A8CB
:103800000FF0B2FAC02200211EA80FF0ADFA02207C
:1038100005F02CFC2368012B4FF0000354D0584ACC
:1038200002250193C820D16A564B21F00101D162D3
:10383000D26A02F0010201929A6942F440429A610E
:103840009B6903F440430193019B4E4A93699B0497
:10385000FCD54D490224002201268B6A04274FF033
:10386000080823F0030323438B62052316900AA85C
:1038700018934FF480331096179419941597CDF838
:103880006880CDE91B222122CDE91344CDE90A232A
:1038900006F050F900B1FEE73F220323294602A8B3
:1038A000CDE9022300220823CDE90423402240234E
:1038B000CDE9062340234FF48062CDE9082306F0CA
:1038C000D3FC0346B8B1FEE72E4A04250093F0204E
:1038D00091692B4B41F440419161926902F440425D
:1038E0000092DA6A42F00102DA62DB6A03F0010355
:1038F0000093009BA9E7202226932E9380212C92EF
:103900004FF48052319306253F931EA8279236929A
:103910004FF4803225914FF44011329247920022A9
:103920002895802540911021CDF888802B972096EE
:103930002A91CDE92F3440F2271329934FF4806365
:103940002D930023CDE92346CDE93C234FF4807429
:103950000C2344940224219307A3D3E90023CDE947
:103960003445CDE91E2306F06BFF00B1FEE705F0FC
:10397000A1FB4EB0BDE8F0810F130F030000000063
:1039800000040058004802580044025870B584B042
:10399000012401F0F1FC4FF480764FF04052194BB6
:1039A00068460025ADF800400396CDE9012301F0FB
:1039B00001FD19224FF0404368468DF8082001931D
:1039C0008DF80F40ADF80D608DF801408DF80A506C
:1039D00001F0F0FC02230B2268468DF80F508DF8A1
:1039E00001304FF062538DF808200193ADF80D407F
:1039F0008DF80A4001F0DEFC042001F0CBFC04B09D
:103A000070BD00BF0E00010330B50D46044685B001
:103A1000D1E9000184E8030000F0B8FDAB79002B88
:103A200063D00CF0D1FFFEF731FD0BF069FA0CF01A
:103A30006FFC2B795BB3304C636913F4803326D170
:103A4000C4F88430BFF34F8FD4F8801043F6E07E83
:103A5000C1F34E3CC1F3C9014FEA4C1C0CEA0E0005
:103A60000B4640EA8372013BC4F860225A1CF8D12D
:103A7000ACF1200C1CF1200FF0D1BFF34F8F636924
:103A800043F480336361BFF34F8FBFF36F8F6B7964
:103A9000B3B1194A536913F4003311D1BFF34F8FF7
:103AA000BFF36F8FC2F85032BFF34F8FBFF36F8FEA
:103AB000536943F400335361BFF34F8FBFF36F8FEC
:103AC0004FF0FF3200230024002569460B48029284
:103AD0008DF80C30CDE900450BF046FE07480BF0A1
:103AE000ABFE0AF0A9FB05B030BD2046FFF77CFE17
:103AF0002046FFF74BFF94E700ED00E020B20024E2
:103B000006F01ABD1C4B9B6803F17842B2F5003FEA
:103B100025D3B3F5803F20D303F16042B2F5003FD7
:103B20001FD303F15C42B2F5002F1CD303F17042A6
:103B3000B2F5902F19D303F14842B2F5803F16D366
:103B400003F18042B2F1806F13D303F1E043B3F588
:103B5000000F2CBF0820072070470120704700206D
:103B600070470220704703207047042070470520EB
:103B700070470620704700BF00ED00E003480023B7
:103B8000034A044903600FF091B800BF20B200243B
:103B9000000000244136000810B4204C0022204BC5
:103BA00083B0D4F888101F4841F47001C4F888101D
:103BB00019681D4C41F0010119601A61196808402B
:103BC0001A4918609A61DA611A629A62DA621A63B3
:103BD0005A639A63DA631A645A64186820F480207E
:103BE00018601A66D3F8DC2042F06042C3F8DC208B
:103BF000D3F8DC300193019B23681940B1F1005FD9
:103C000003D20B4B0122C3F80821044B4FF0006292
:103C10009A6003B05DF8044B704700BF00ED00E010
:103C2000004402587FEDF6EA0010005C0000FFFF40
:103C300000800051704700BF0020704770B50446F7
:103C4000074E0D463046214609F072FD304609F018
:103C500097FD044B204629461B689847002070BDFD
:103C6000289D002424D2002470B50446074E0D463A
:103C70003046214609F05CFD304609F081FD044BD9
:103C8000204629461B689847002070BD04A00024E8
:103C900028D2002400220949094808B509F03AFD54
:103CA0000849074809F044FD074B1A680AB100208B
:103CB00008BD064A00201A6008BD00BF24C20024C7
:103CC000289D002424B2002424D20024353C00087E
:103CD00000220949094808B509F01CFD08490748B0
:103CE00009F026FD074B1A680AB1002008BD064AF4
:103CF00000201A6008BD00BF24CA002404A00024CC
:103D000024BA002428D20024353C000820280AD0F8
:103D1000212806D1094B18689A889B7908608A8007
:103D20008B7100207047054B0868B1F804C08A7990
:103D300018600020A3F804C09A7170477C0000242A
:103D400020280AD0212806D1094B18689A889B7927
:103D500008608A808B7100207047054B0868B1F8B5
:103D600004C08A7918600020A3F804C09A717047D3
:103D7000840000240020704710B5094CD4F8BC32F0
:103D8000D3F814320BB1012010BD0A46014620467B
:103D900009F0C0FC2046BDE8104009F0D5BC00BFCA
:103DA000289D00244B4A036830B593428BB04FF0F6
:103DB0000004CDE90444CDE90644089404D0464A01
:103DC000934249D00BB030BD444D4FF4C0524448EB
:103DD000D5F8E03043F00103C5F8E030D5F8E03025
:103DE00003F0010300930223009904A9CDE9042301
:103DF0000A23089302F0A0FD4FF40072002304A9E7
:103E000037480694CDE9042302F096FDD5F8D83062
:103E10002246214643F000636220C5F8D830D5F829
:103E2000D83003F000630193019B01F02FFA622068
:103E300001F06AFA22462146632001F027FA632046
:103E400001F062FA22462146652001F01FFA652042
:103E500001F05AFA0BB030BD204D4FF4404204A996
:103E6000D5F8E03043F00203C5F8E030D5F8E03093
:103E700003F002030293022302981A48CDE90423B7
:103E80000C23089302F058FDD5F8D830224621467D
:103E90004A2043F00073C5F8D830D5F8D83003F085
:103EA00000730393039B01F0F1F94A2001F02CFA0F
:103EB000224621464B2001F0E9F94B2001F024FA7B
:103EC000224621464D2001F0E1F94D2001F01CFA77
:103ED0000BB030BD00000840000004400044025810
:103EE000000002580004025800F2C441D0F808054E
:103EF00009F0C4BC01EBC10300EB8303D0F8080553
:103F0000D3F8882209F0EABC01EBC10300EB83037C
:103F1000D0F808059A6C09F01BBD00BFD0F8080561
:103F200009F0C4BD016910B5044619B1022900D0D9
:103F3000FEE70121D4F8080509F098FDD4F808053A
:103F4000BDE8104009F064BD10B50446D0F808057E
:103F500009F090FD2268D2F8003E43F00103C2F858
:103F6000003E236A23B1034A136943F00603136139
:103F700010BD00BF00ED00E0D0F8080509F08ABDD3
:103F8000D0F8080509F0B8BDD0F8080509F09EBDC5
:103F9000D0F8080509F0C6BDD0F8080509F0C4BD81
:103FA00070B5067804461EB1012E30D0002070BDD9
:103FB000304D0923304AC5F80805C0F8C8522846D4
:103FC000EE602E63C5E90023022302222B61002349
:103FD000C5E9062300220023C5E9082301220123A5
:103FE000C5E90A2304F04CF800B1FEE78021284619
:103FF00005F01CF831464022284604F0EDFF8022EF
:104000000121284604F0E8FF2678012ECED11B4D71
:1040100009221B4B00216A6002222B600223C5F893
:10402000084528462B610023C4F8C852E960C5E959
:10403000062300220023C5E90823C5E90C23012239
:104040000023C5E90A2304F01BF8044600B1FEE78B
:104050004FF40071284604F0E9FF214680222846EB
:1040600004F0BAFF4FF4BA723146284604F0B4FFA8
:104070009CE700BF30D200240000084040D7002455
:1040800000000440D0F8C80208B504F087F80328FF
:1040900002D8024B185C08BD032008BD945C0108DF
:1040A0009446D0F8C8021A4608B5634604F052FE9A
:1040B000032802D8024B185C08BD032008BD00BFCE
:1040C000945C0108D0F8C80208B504F081FE03280A
:1040D00002D8024B185C08BD032008BD945C01089F
:1040E000D0F8C80208B504F0F7FE032802D8024B46
:1040F000185C08BD032008BD945C0108D0F8C80214
:1041000008B504F02DFF032802D8024B185C08BD47
:10411000032008BD945C01080A06D0F8C83206D412
:1041200001EBC10103EB810191F87E02704701F0C0
:104130007F0101EBC10103EB810191F83E00704763
:10414000D0F8C80208B504F0EFFD032802D8024BEE
:10415000185C08BD032008BD945C0108D0F8C802B3
:1041600008B504F097FE032802D8024B185C08BD7E
:10417000032008BD945C0108D0F8C80208B504F01B
:104180005DFE032802D8024B185C08BD032008BD61
:10419000945C0108D0F8C80204F072BE12230148F2
:1041A0000B807047D8000024122301480B80704711
:1041B000C4000024042301480B807047EC00002455
:1041C00010B5044C0A460448214609F07DFF2046FC
:1041D00010BD00BF4CDC0024985C010810B5044CF5
:1041E0000A460448214609F06FFF204610BD00BF73
:1041F0004CDC0024A85C010810B5044C0A460448B5
:10420000214609F061FF204610BD00BF4CDC0024B0
:10421000BC5C010810B5044C0A460448214609F06C
:1042200053FF204610BD00BF4CDC0024C85C0108D1
:1042300010B5044C0A460448214609F045FF2046C3
:1042400010BD00BF4CDC0024D85C010804230148E9
:104250000B807047EC00002410B5044C0A4604485B
:10426000214609F031FF204610BD00BF4CDC002480
:10427000985C0108464A4FF01A0CD2F80008D2F8B0
:104280000838A1F800C0C31801D142487047180F80
:10429000B3F1204FD2F804184FF0000C3D4A2CBF68
:1042A0003730303082F803C04FF0000C9070C3F309
:1042B000036082F805C04FF0000C092882F807C09F
:1042C0004FF0000C8CBF3730303082F809C04FF00F
:1042D000000C1071C3F3035082F80BC04FF0000CB8
:1042E000092882F80DC08CBF373030309071C3F38D
:1042F000034009288CBF373030301072C3F30330CD
:1043000009288CBF373030309072C3F3032009285E
:104310008CBF373030301073C3F3031003F00F033A
:1043200009288CBF37303030092B90734FF00000D4
:1043300094BF30333733B1F1204FD07313744FEA49
:1043400011734FF000002CBF37333033507400200E
:104350009374C1F30363D0740020092B50754FF0A0
:1043600000008CBF37333033D0751375C1F303535E
:104370000848092B8CBF373330339375C1F303439F
:10438000092B94BF303337331376002353767047AD
:1043900000E0F11FF0000024464A4FF01A0CD2F85A
:1043A0000008D2F80838A1F800C0C31801D142486B
:1043B0007047180FB3F1204FD2F804184FF0000CDB
:1043C0003D4A2CBF3730303082F803C04FF0000C2C
:1043D0009070C3F3036082F805C04FF0000C092809
:1043E00082F807C04FF0000C8CBF3730303082F8B5
:1043F00009C04FF0000C1071C3F3035082F80BC0DA
:104400004FF0000C092882F80DC08CBF37303030D7
:104410009071C3F3034009288CBF373030301072DD
:10442000C3F3033009288CBF373030309072C3F3A8
:10443000032009288CBF373030301073C3F30310CA
:1044400003F00F0309288CBF37303030092B9073ED
:104450004FF0000094BF30333733B1F1204FD073A9
:1044600013744FEA11734FF000002CBF3733303311
:10447000507400209374C1F30363D0740020092B9F
:1044800050754FF000008CBF37333033D075137543
:10449000C1F303530848092B8CBF3733303393756E
:1044A000C1F30343092B94BF303337331376002312
:1044B0005376704700E0F11FF000002410B5044C63
:1044C0000A460448214609F0FFFD204610BD00BF02
:1044D0004CDC0024C85C010810B5044C0A460448B2
:1044E000214609F0F1FD204610BD00BF4CDC002440
:1044F000BC5C0108D0F8000309F058BED0F80003F6
:1045000009F06CBED0F8000309F074BE704700BF1C
:10451000D0F8000309F05ABED0F8000309F05ABEE3
:10452000D0F8D40308B503F08DF8032802D8024B65
:10453000185C08BD022008BDEC5C0108704700BF94
:104540000F4B1B780BB90120704710B504464FF490
:104550007A700C4AB0FBF3F31068B0FBF3F000F094
:10456000F5FE0F2C00D808B1012010BD0022214615
:104570004FF0FF3000F08AFE034B00201C6010BD9E
:104580000A0100244C0000240C01002410B5032073
:10459000124C00F069FE05F0C7FD114B11499A69F4
:1045A0009B69C2F3032203F00F038A5CCB5C02F029
:1045B0001F020D4903F01F03D04020FA03F30860E7
:1045C0000E202360FFF7BCFF10B10124204610BD70
:1045D0000446FFF7B3FF204610BD00BF5000002483
:1045E00000440258845C01084C000024034A044B38
:1045F00011681B780B441360704700BF54E100241E
:104600000A010024014B1868704700BF54E10024E0
:1046100038B50446FFF7F6FF0546631C02D0044B8D
:104620001B781C44FFF7EEFF431BA342FAD338BDAF
:104630000A010024014B1868000C70470010005C50
:10464000704700BF806B08B5FFF7FAFF08BD00BFD9
:10465000836B5A6D12F0500F5A6D10B51DD1196849
:1046600042F400725A650A6812F0080FCA681BD03B
:1046700012F4406F0DD1CA6894040AD45A6D22F422
:1046800080725A655A6DD10403D45A6D42F001020A
:104690005A651846FDF75CFA10BDD2060AD4DB6CE9
:1046A000BDE81040DB6C18479007E7D01846FDF7CF
:1046B0004FFAF1E71846FDF7F9FA10BD806B08B51F
:1046C000436D43F040034365836D43F0040383650A
:1046D000FDF7ECFA08BD00BFF0B5002283B00192EF
:1046E00090F85020012A00F0B880034601201A6893
:1046F00083F850009468640708D55A6D42F0200290
:104700005A65002283F8502003B0F0BD0C68002CDD
:10471000C0F2A180C4F31305002D00F0978094FA35
:10472000A4F515B1B5FA85F5A840A40ED5692843BE
:10473000D0614D681F2002F1300E04F01F04AE0955
:1047400005EA000C06F00C0600FA0CF704FA0CF46B
:1047500056F80E0020EA0700044346F80E40906821
:10476000400776D4956815F0080555D10C6802F11C
:10477000140607208F684FEAD45CC4F304540CF08D
:10478000040C00FA04FE07FA04F4B64F5CF80600C5
:1047900020EA0E0020434CF80600386800F0704014
:1047A000B0F1805F00F0E880D068D668C70600F1FD
:1047B000EB80C6F382064869760000FA06F60F69B8
:1047C000042F7BD002F16004086854F827C000F081
:1047D000F8400CF0004C40EA0C00304344F827004D
:1047E000487E0E69012854F826000CBF4FF00047A0
:1047F000002720F00040384344F826000C7E08696A
:10480000012C04D100F01F004FF4006585401069B1
:1048100020F4F040054315619068C40714D4CE68B5
:104820000C6806F018079048D2F8C050F840C4F35E
:104830001307204025EA07052843C2F8C0008B482B
:10484000864257D0002C0BDB00205AE7A40EA04074
:104850006CE79068E0E7A40E6BE7022003B0F0BDC0
:1048600083498A4200F0B68001F580718A4200F0E7
:10487000B180804D8048A968806801F0E076C0432F
:1048800000F00100002800F0B4807C48844200F071
:10489000FD807B48844200F01C817A488442D3D159
:1048A0004902D1D474498A42CED1AA68002022F0AC
:1048B000E072324342F48002AA6022E7106E0C6874
:1048C00000F0F840A506B0EB846F79D0506E00F090
:1048D000F84085426FD0906E00F0F840854274D069
:1048E000D06E00F0F840854296D1D06E20F00040A6
:1048F000D06691E7002F4ED094FAA4F5002D00F079
:104900008C80B5FA85F0013000F01F06092E40F2C8
:104910008480B5FA85F580060126013500F0F8405F
:1049200094FAA4F405F01F0506FA05F50543002CDA
:1049300000F0DF80B4FA84F4A0196FF01D0600F0D7
:104940001F04032010FB0460000540F000702843A2
:10495000072402F11405C60DC0F3045006F0040646
:1049600004FA00F7745924EA07048F6807FA00F084
:10497000204370510C6865E7D6684869C6F3820623
:10498000760000FA06F61AE77608486906F0080687
:1049900000FA06F613E7A40E013404F01F06092EF0
:1049A0002DD8A506012005F0F845B040054306EBDB
:1049B00046000005CBE7506E20F0004050668AE7C5
:1049C000106E20F00040106680E7906E20F00040EE
:1049D000906685E726482C4D00F58070A96850F850
:1049E000F86C8068304301F0E076C04300F00100CD
:1049F00048E75A6D012042F020025A6581E606EB35
:104A00004600A50601241E3805F0F84504FA06F60E
:104A10000005354340F0007099E794FAA4F00028AF
:104A20006ED0B0FA80F00130800600F0F84094FAC1
:104A3000A4F5002D62D0B5FA85F50126013505F003
:104A40001F0506FA05F5054394FAA4F4002C52D08C
:104A5000B4FA84F4013404F01F0404EB4404200588
:104A600075E700BF0010005CFFFF0F000000FF476C
:104A7000002002400063025800600258000084CB0E
:104A8000000052C70000B8CF0023024008023FF5E3
:104A9000DBAE1D498A427FF4D7AE1C4A1C4812681F
:104AA000A968920921F0E071A0FB0202314392094A
:104AB00041F400010132A96052000192019A002ADA
:104AC0003FF4C2AE019A013A0192019A002AF9D14B
:104AD000BAE611F080707FF4B7AE0B498A427FF4DA
:104AE000B3AEAA6822F0E072324342F08072AA604C
:104AF00007E608482BE74FF4401028E70225A2E715
:104B00004FF0806093E700BF006002584C00002423
:104B1000632D3E05000050FE03689A68D10701D559
:104B2000002070479968214A114270B504462CD183
:104B300099681F4A0A4042F001029A60FFF762FD3D
:104B400023681C4A0546934228D002F5807293429E
:104B500024D0194A92681A68D60714D4144E9A6859
:104B6000D00704D49A68324042F001029A60FFF7FD
:104B700049FD431B022B236802D91A68D10704D5CB
:104B80001A68D207EBD5002070BD636D012043F099
:104B900010036365A36D0343A36570BD074A926864
:104BA000D206D8D0064A9342D5D1ECE73F00008028
:104BB000C0FFFF7F00200240006302580023024034
:104BC000002102402DE9F0413E4D044600680F46A9
:104BD0001646A84219D03C4B984216D03B4DAB68C4
:104BE0008068420716D494F85020012A12D003F0AE
:104BF0001F080122B8F1090F84F850200DD90023B5
:104C0000012084F85030BDE8F081314DAB688068F8
:104C10004207E8D50220BDE8F08140F2212323FAC3
:104C200008F3DB4313EA0205E9D12046FFF774FFDE
:104C3000002841D1626D274B2168134043F48073F3
:104C40006365B8F1000F02D01F4B994203D0636D2A
:104C500023F480136365636D13F4805330D0A36D28
:104C600023F00603A365E06C33461B4D3A46E66A23
:104C70004031C563194D0564194DC5641C2541F8C3
:104C8000405C002584F8505051F83C5C45F010051C
:104C900041F83C5C51F8345C25F00305354341F89C
:104CA000345C00F013FF22680E4B91680B4043F018
:104CB00004039360BDE8F08184F85050BDE8F081B2
:104CC000A365D0E7002002400021024000630258A3
:104CD00000230240FEF0FFFF514600084546000851
:104CE000BD460008C0FFFF7F38B503689A68950786
:104CF00002D59B68002038BD9A68D40729D59A68E8
:104D0000044602F00D02012A08D0636D012043F031
:104D100010036365A36D0343A36538BD9868032141
:104D20000D4A024042F002029A601960FFF76AFCE5
:104D3000236805469B68D9070BD5FFF763FC401B2A
:104D40002368022802D99A68D207DED49B68DB0761
:104D5000F3D4002038BD00BFC0FFFF7F38B5574AED
:104D600004460368934226D002F58072934222D013
:104D7000534B9B6813F4403F22D005F09DFB6368C2
:104D80000546B3F5003F00F08880B3F5403F6CD096
:104D9000B3F5803F00F08180FFF74CFC41F2030344
:104DA00098424BD8474B9D422AD92268936843F4D6
:104DB0008073936038BD444B9B6813F4403FDCD153
:104DC0004FF40020002106F08BFD63680546B3F523
:104DD000101F6CD008D8B3F5E01F50D016D9B3F52A
:104DE000001FD9D14509D7E7B3F5201F45D0B3F54A
:104DF000301FD1D1FFF71EFC41F20303984240D887
:104E00002268936823F48073936038BDB3F5801FE4
:104E100006D00AD9B3F5A01F02D0B3F5C01FBBD18D
:104E20009B0C5B00B5FBF3F5B6E7B3F5002FF7D0AD
:104E300023F40022B2F5802FF2D0ADE7234B9D4240
:104E400005D82268936823F44073936038BD204BE3
:104E50009D421AD91F4B22689D42936829D823F49A
:104E6000407343F40073936038BD8508FFF7E2FB9D
:104E700041F203039842E1D894E7C5098CE705099C
:104E80008AE7124BB3EB152FDBD22268936823F429
:104E9000407343F48073936038BD1B0CB5FBF3F58E
:104EA000FFF7C8FB41F203039842C7D87AE78509A8
:104EB00072E743F44073936038BD00BF00200240A6
:104EC00000630258002D31010023024021BCBE00C6
:104ED00041787D0181F0FA0270B5002382B0019320
:104EE000002800F0D180456D0446002D00F0BB8005
:104EF000226893689D0003D59168724B0B409360C4
:104F00009368D80016D4704B70491B6890689B0951
:104F1000A1FB03136E499B090140013341F080510D
:104F200091600193019B2BB1019B013B0193019B7C
:104F3000002BF9D19368D90024D4636D012543F087
:104F400010036365A36D2B43A365936813F0040FEF
:104F5000636D1DD1DB061BD4636D23F4817343F0B5
:104F6000020363659368DE0728D45A4B9A4217D030
:104F700003F580739A4213D0574B9B68D9071DD411
:104F8000564A15E09368002513F0040F636DE1D0D5
:104F9000636D012543F010032846636502B070BDC0
:104FA0004C4A4F4B92689B681343D80706D44D4A2E
:104FB0009368616823F47C130B439360FFF73AFB1B
:104FC00041F20303A1689842237F52D894F815C098
:104FD0001A04206B42EA4C3202430A43012B03D1EC
:104FE000236A013B42EA4342636A23B103F47873C4
:104FF000A16A0B431A4323683B49D86801400A431E
:10500000DA609A6812F0040F9A681CD112071AD459
:10501000D868364A217D024042EA8132E16A0A4379
:10502000DA6094F83820012A3AD01A6922F0010295
:105030001A611A692046616B22F070420A431A61B4
:10504000FFF78CFE2368E268012A21D01A6B22F058
:105050000F021A63636D284623F0030343F0010334
:10506000636502B070BDFCF71BFDA56584F8505068
:105070003EE71029AAD1617D1A0442EA4132216B30
:105080000A4342F01C02A9E70125284602B070BD80
:10509000196BA26921F00F01013A0A431A63D9E79B
:1050A000D4E90F12666C01391869324342EA0142B1
:1050B000A16C0A430E4901400A4342F001021A6101
:1050C000B7E700BFC0FFFF5F4C000024632D3E0523
:1050D000C0FFFF6F002002400060025800630258CA
:1050E000002102400023024003C0F0FFFCBFFFFF8D
:1050F0001EF800FCF0B5002383B0019390F8503007
:10510000012B40D0012304460E46154680F850304E
:10511000FFF7EAFDE8B9676D05F080421B4B06F426
:1051200080311B4D3B401B4F43F0020363652368F6
:105130009E68354015430D4345F000459D609A68D3
:10514000002A0FDB636D23F0030343F00103636563
:1051500003E0636D43F010036365002384F850306F
:1051600003B0F0BD019A01320192019ABA42E6D32E
:10517000636D0022012023F0120384F8502043F0D5
:1051800010036365ECE7022003B0F0BDFDEEFFFF06
:10519000C0FFFE3F00F8C325F0B490F850209AB04D
:1051A0000E68012A4DD003462B4C002201201D68B9
:1051B0001692A54283F85000179208D0596D83F8D3
:1051C000502041F0200159651AB0F0BC7047234CC3
:1051D000A26852070BD5AA685A6D012042F020023E
:1051E0005A65002283F850201AB0F0BC7047A868B6
:1051F00010F00400F0D1C6B1DFF868C04F68DCF8E9
:10520000082022F440423A43CCF80820AD68A26856
:105210002A43D40713D48A68DCF808101643104ACE
:105220000A401643CCF80860DBE70E498A6822F48E
:1052300040428A60A868A2680243D00705D50020D2
:10524000CFE702201AB0F0BC70478C683046044AA1
:1052500022408A60C5E700BF0020024000210240D2
:10526000E0F0FFFF0023024006494FF6FF0C00026A
:10527000054BCA6800F4E06002EA0C0210430343E5
:10528000CB60704700ED00E00000FA051B4BDB68C7
:10529000C3F3022300B5C3F1070E03F1040CBEF102
:1052A000040F28BF4FF0040EBCF1060F1AD9033BC0
:1052B0004FF0FF3C0CFA03FC22EA0C024FF0FF3CDB
:1052C00000280CFA0EFC21EA0C0101FA03F141EA74
:1052D00002010ADB09010A4BC9B2034483F8001337
:1052E0005DF804FB00221346E8E700F00F00090117
:1052F000044BC9B2034419765DF804FB00ED00E0ED
:1053000000E100E0FCEC00E0002807DB012300F0F6
:105310001F01034A40098B4042F82030704700BF0C
:1053200000E100E000280DDB4309012200F01F002E
:105330000549203302FA00F041F82300BFF34F8FF4
:10534000BFF36F8F704700BF00E100E0431EB3F171
:10535000807F0CD24FF0E022002006494FF0F00C85
:105360005361072381F823C09061136170470120C6
:10537000704700BF00ED00E0BFF35F8F044B0021DA
:105380005A6A22F480325A62C3F89410704700BF00
:1053900000ED00E0064B40F00100C3F894005A6AAB
:1053A00042F480325A62BFF34F8FBFF36F8F704762
:1053B00000ED00E0174A4378C2F89830017821B335
:1053C000436800B5C2F89C30C37A90F80CC01B0645
:1053D00090F80FE043EA0C7390F80AC00B43817B0E
:1053E00043EACC4390F80DC043EA8C4390F809C0DF
:1053F00043EA4143017A43EA0E4343EA0C2343EA7A
:105400004103C2F8A0305DF804FBC2F89C10C2F85A
:10541000A010704700ED00E0704700BF08B5FFF72F
:10542000FBFF08BD0268344B344930B4344D354C71
:10543000AA4218BF9A420CBF012300238A4208BF28
:1054400043F001033031A24208BF43F0010330347E
:105450008A4208BF43F001033031A24208BF43F043
:10546000010330348A4208BF43F0010301F55C7147
:10547000A24208BF43F0010304F55C748A4208BFEE
:1054800043F001033031A24208BF43F0010330343E
:105490008A4208BF43F001033031A24208BF43F003
:1054A000010330348A4208BF43F001033031A24285
:1054B00008BF43F001038A4208BF43F0010313B958
:1054C000114B9A4213D1D3B21049114C103BA1FB9E
:1054D00003515F2B0F4BC1F3021103EA0203615C1E
:1054E00088BF0433C1658365184630BC704722F01D
:1054F000FF038365F8E700BF100002404000024050
:105500002800024058000240B8040240ABAAAAAAF0
:10551000F05C010800FCFFFF0368294A294930B408
:10552000294D2A4CAB4218BF93420CBF01220022E6
:105530008B4208BF42F001022831A34208BF42F06B
:10554000010228348B4208BF42F001022831A342F5
:1055500008BF42F001028B4208BF42F0010212B9BB
:105560001B4A934213D1DBB21A4C1B4A0121083B60
:105570001A4DA4FB0343456602EB1312C3F3041355
:10558000920001FA03F30266836630BC7047DAB218
:105590001349144C1944103AA829A4FB02234FEADA
:1055A000131300D80833104A03F01F0501210F4CD4
:1055B0001A44A9404466920081660266E5E700BF8E
:1055C00008540258305402581C540258445402588B
:1055D00094540258CDCCCCCC00960016805802587A
:1055E000F0FBFDBFABAAAAAA00820010800802400F
:1055F000F8B50446FFF706F8002C00F07781236821
:105600000546924A934248D01832934245D03032F0
:105610008F498B4218BF934201F130010CBF012228
:1056200000228B4208BF42F0010218318B4208BFB2
:1056300042F0010218318B4208BF42F001021831DA
:105640008B4208BF42F0010201F556718B4208BF40
:1056500042F0010218318B4208BF42F001021831BA
:105660008B4208BF42F0010218318B4208BF42F062
:10567000010218318B4208BF42F0010218318B42FF
:1056800008BF42F0010218318B4208BF42F001020C
:105690001AB9704A934240F098810022022184F89E
:1056A000342084F835101A6822F001021A6006E0EE
:1056B000FEF7A8FF431B052B00F2FF8023681A6842
:1056C000D607F5D4D4E9022520692A43A1691D68CB
:1056D000024360690243E0690A4302435E4828408E
:1056E000256A2A435D4D0243606A042800F0008168
:1056F0002E685B4D3540B5F1005F80F0BB801A60CD
:105700005A6922F0070202435A612046FFF78AFED7
:10571000E26D3F2302F01F029340836022684B4BEF
:1057200050484B49824218BF9A4200F130000CBFEA
:10573000012300238A4208BF43F001033031824233
:1057400008BF43F0010330308A4208BF43F0010331
:105750003031824208BF43F0010330308A4208BF33
:1057600043F0010301F55C71824208BF43F001037D
:1057700000F55C708A4208BF43F001033031824279
:1057800008BF43F0010330308A4208BF43F00103F1
:105790003031824208BF43F0010330308A4208BFF3
:1057A00043F001033031824208BF43F0010330303F
:1057B0008A4208BF43F001032B49824208BF43F0ED
:1057C00001032A488A4208BF43F00103283182427C
:1057D00008BF43F0010328308A4208BF43F00103A9
:1057E0002831824208BF43F0010328308A4208BFB3
:1057F00043F001032831824208BF43F001038A428B
:1058000008BF43F0010313B9194B9A4218D120463F
:10581000FFF782FEA368802B5CD06368A06EDAB2CB
:10582000013BD4E91851072B2A60486059D8501E13
:1058300007286ED9626FD4E91B31002018604A60D6
:1058400000200123606584F83530F8BD1000024067
:1058500040000240B80402403F8010FE0010005C8F
:105860000000FFFF28000240085402581C54025850
:10587000945402586568A5F129061F2E24D94F3D7E
:10588000032D01D842F480121A6004285A6922F0CC
:10589000070242EA00027FF437AFE56AA06A0243DA
:1058A000002D3FF431AF002969D1012800F0888034
:1058B00030F002017FF428AF69E0202203230120A9
:1058C000626584F83530F8BD734D25FA06F6F507A4
:1058D000DAD5D7E70023A16ED4E91802636003602C
:1058E00051600023C4E91B336367A9E70120F8BDB9
:1058F0002F68D4E90B562E433243684E3E40B6F132
:10590000005FB7D21A605A6922F0070242F004021F
:10591000C4E72168624B634DA94218BF994205F163
:1059200014050CBF01230023A94208BF43F0010363
:105930001435A94208BF43F001031435A94208BF3A
:1059400043F001031435A94208BF43F001031435A5
:10595000A94208BF43F001033BB9534B994204D01D
:10596000524B534913449B0003E0524B524913449A
:105970009B0001228240C4E91B3162675DE7B1F5FB
:10598000005F0ED0022805D903287FF4BDAEE901DF
:105990007FF5BAAE012340221846626584F835309F
:1059A000F8BD03283FF6B0AE01A151F820F000BFCA
:1059B000955900088F59000895590008C1590008E9
:1059C000B5F1C07F7FF4A0AEE4E7354A35483B49E6
:1059D000834218BF934200F128000CBF012200222D
:1059E0008B4208BF42F001022831834208BF42F0D7
:1059F000010228308B4208BF42F001022831834265
:105A000008BF42F001028B4208BF42F0010212B906
:105A1000254A934238D100220221294D84F83510BD
:105A200084F834201A681540A268402A2AD0802AB7
:105A30000CBF4FF480400020266AD4E90312D2083C
:105A400042EAD102616942EAD102A16942EAD10285
:105A5000E16942EAD1021B4942EA161219442A437B
:105A600002431948A0FB010120461A600B099B0064
:105A7000E365FFF7D7FCE26D012302F01F029340BC
:105A800043604BE61020D7E74022032301206265E4
:105A900084F83530F8BD00BF3F00C0C30000FFFFF1
:105AA000085402581C540258945402583F82001063
:105AB000400902403F96001640590258305402589F
:105AC0000F00FEFFF8ABFDA7CDCCCCCC002800F03A
:105AD0008281844690F83400012800F07E81012004
